:040000000C944A0012
:100004000C9400000C9400000C9400000C9400006C
:100014000C9400000C9400000C9400000C9400005C
:100024000C9400000C942A010C9400000C94000021
:100034000C941E010C9400000C9400000C9400001D
:100044000C9400000C9400000C9400000C9400002C
:100054000C9400000C9400000C9400000C9400001C
:100064000C94000025312E3066202020000080C032
:100074002D4E414E000001002D4E414E00494E468A
:10008400000002001A03720001001E037A0000003F
:10009400F894EE27EFBBF1E0F5BFE5BF8DE0A2E0F9
:1000A400BB27ED938A95E9F780E098E0A0E0B1E002
:1000B400ED930197E9F7E6E8F0E0859195910097D3
:1000C40061F0A591B59105901590BF01F0010590DF
:1000D4000D920197E1F7FB01F0CFE0E0EEBBEFEF0B
:1000E400EDBFE8E0EEBFC0E0D3E00C947900A0E1FE
:1000F40044D1E3E4E0938100E1E2E0936F0078947B
:10010400A0910803A23008F495C0E0911903A4E07B
:10011400B3E0FF27662777270E94D1080E948D0A43
:10012400A0910403B0910503809106039091070305
:10013400E0E0F0E060E877E40E945B09E093040308
:10014400F09305036093060370930703E0910203A1
:10015400F0910303A0910003B0910103EA17FB0798
:10016400B8F4A0910203B0910303E0910003F0916D
:100174000103EA1BFB0BA0910403B09105038091DA
:10018400060390910703662777270E94D1081EC0B3
:10019400E0910003F091010366277727A0E0B0E027
:1001A40081E090E00E94170AE0910203F0910303BA
:1001B400662777270E94120AA0910403B0910503D1
:1001C40080910603909107030E94D1080E940B09B5
:1001D400E0930403F093050360930603709307030D
:1001E400E9E0F3E0FA93EA93E8E6F0E0FA93EA93BD
:1001F400E0910403F09105036091060370910703F5
:100204000E94A10A84E00E9489062896E0E0EA930D
:10021400A0E06ED0A9E0B3E09FD0E0E0E09300035B
:10022400E0930103E0930803E0931903E09385004E
:10023400E093840065CFFFCFEA93EFB7EA93E091B0
:100244001903EF5FE0931903E991EFBFE991189562
:10025400AA93BA93EA93FA93EFB7EA93E09100036F
:10026400F0910103E0930203F0930303E09186000D
:10027400F0E0E0930003F0930103E0918700FE2F88
:10028400E0E0A0910003B0910103EA2BFB2BE09383
:100294000003F0930103E0910803EF5FE093080388
:1002A400E991EFBFF991E991B991A9911895AA93B0
:1002B400EBB1EF70AE2FE881E07FEA2BEBB98BE175
:1002C4008A95F1F75A9A8BE18A95F1F75A988BE15E
:1002D4008A95F1F78AC0AA93A881E9DFE881E295BB
:1002E400E883A881E4DF88EC90E00197F1F77DC012
:1002F400AA93E881F0E0E65EFC4FE081A981AE0FAD
:10030400EADF4980388022960895A2E0E4DFA3E082
:10031400B0E00E945B08ACE0DEDFA1E0DCDFA3E03C
:10032400B0E00E945B08E0E03E2E4E2E0895AA93B2
:10033400A881AA3011F0461448F0E0E0EA9333941F
:10034400A32DD6DFA881AA3009F44FC04394589A4C
:10035400A881C1DF589849C0BA93AA931A93A98176
:10036400BA81ED91A983BA831E2FE03019F0A12F31
:10037400DEDFF5CF188123960895AA93EAB1E06FE2
:10038400EAB9529A509A519A5A985898599868804A
:10039400E881E058E0931C03E881E054E0931D03F6
:1003A400A4E1B0E00E945B08A0E381DF80E991E072
:1003B4000197F1F7A0E37BDF80E991E00197F1F782
:1003C400A0E375DF80E991E00197F1F7A0E26FDF28
:1003D40080E991E00197F1F7A8E27DDFA4E07BDFFB
:1003E400A5E879DFA6E077DF90DF21960895BA9338
:1003F400AA931A930A93AA81BB8112960E94830A34
:10040400309759F1AA81BB8114960E94830A8F0107
:10041400309761F00230E0E01E0798F0F801319760
:100424008F01AA81BB811496ED93FC93AA81BB81B1
:100434001296ED91FD913196FE93EE933197AC8136
:10044400A083AA81BB810E94830AFF232AF0ED9135
:10045400FD913196FE93EE9306C0AA81BB81EFEF26
:10046400FFEFED93FC931981088125960895BA93C3
:10047400AA932497E0E0E883E983E0E8EA83EFE3E2
:10048400EB830E94BE0AEE85FF85EF3FAFEFFA07CC
:1004940049F4E885F985FA93EA93A4E7B0E00E9469
:1004A400C50644C1EF3FAFE7FA0749F4E885F9858B
:1004B400FA93EA93A5E7B0E00E94C50637C1AB857D
:1004C400A73010F0E6E0EB871B85E12F1150E030F8
:1004D40079F0AC81BD818E819F81E0E0F0E060E243
:1004E40071E40E945B09EC83FD836E837F83EDCF0F
:1004F400EC85FD856E857F850E94B80A81F430E025
:10050400AC81BD818E819F81E0E0F0E060E271E426
:100514000E945B09EC83FD836E837F837DC03B85F2
:10052400EC81FD816E817F81AC85BD858E859F8543
:100534000E94EE0909F008F426C0AC81BD818E81C9
:100544009F81E0E0F0E060E271E40E945B09EC83EB
:10055400FD836E837F83EC81FD816E817F81AC8519
:10056400BD858E859F850E94EE0960F0EDECFCEC64
:100574006CEC7DE30E945B09EC87FD876E877F87C7
:100584003F5FE9CF25C0EC81FD816E817F81AC8521
:10059400BD858E859F850E94EE0960F4E0E0F0E061
:1005A40060E271E40E945B09EC87FD876E877F87B8
:1005B4003150E9CFAC81BD818E819F81E0E0F0E0D4
:1005C40060E271E40E945B09EC83FD836E837F83A8
:1005D400EC85FD856E857F85A0E0B0E080E09FE33B
:1005E4000E940B09EC87FD876E877F87EC81FD8174
:1005F4006E817F81AC85BD858E859F850E94EE09C5
:1006040058F0EDECFCEC6CEC7DE30E945B09EC87AC
:10061400FD876E877F873F5F10E0EB85E11708F465
:100624004FC0AC81BD818E819F81EDECFCEC6CEC04
:100634007DE30E945B09A0E0B0E080E09FE30E94BC
:100644000B09DF01CB010E941C07EC83FD836E8341
:100654007F83AC85BD858E859F850E94A9090E94F4
:1006640098080E2FA885B9851196A887B987119780
:10067400E05DEC93E02FFF27662777270E94D108DF
:10068400AC81BD818E819F810E945B09AC85BD8553
:100694008E859F850E94AB0A0E940409EC87FD8722
:1006A4006E877F87E12F1F5FE03009F0B6CFA88502
:1006B400B9851196A887B9871197EEE2EC93ADCF6F
:1006C400E885F9853196E887F9873197AA85A0836B
:1006D40030302CF43195A885B985EDE203C0A885A6
:1006E400B985EBE2EC93E885F9853196E887F987DB
:1006F4003196E887F9873197BF01A32FEAE00E947A
:100704003D0AE05DDB01EC93E885F9853196E887E5
:10071400F9873197BF01A32FEAE00E94670AE05DE1
:10072400DB01EC93A885B985E0E0EC930E94C50A4F
:1007340060960895BA93AA93EF9761970E94BC0AB2
:1007440010E0FE01E85AFF4F0190F081E02DE887A8
:10075400F987FE01EA5AFF4F0190F081E02DEE8304
:10076400FF83AE81BF81E0E0F0E0ED93FC93DE0116
:10077400A45ABF4FED91FD913196FE93EE933197BC
:10078400E4912E2FE03009F4B9C2E12FE03059F49E
:10079400253211F411E006C02A93AF81B885E985AA
:1007A400FA850995AAC2E130E1F4253239F42A9395
:1007B400AF81B885E985FA8509959EC212E0E0E02B
:1007C400ED8B00E02D3211F401E097C22B3219F4C5
:1007D400EBE2ED8B92C2203219F4E0E2ED8B8DC294
:1007E40002C0E23039F450E013E0203311F4006821
:1007F40084C202C0E33091F4203310F02A3308F0AD
:1008040007C0AAE05A9F502DE22FE0535E0F75C235
:1008140040E02E3211F414E070C20FC0E43099F4B9
:10082400203310F02A3308F008C00062AAE04A9F7F
:10083400402DE22FE0534E0F60C22C3619F40260B3
:1008440015E05BC203C0E53009F057C2E22FE3367E
:10085400A1F4FE01E65AFF4F0190F081E02D349798
:10086400DE01A65ABF4FED93FC93A481AA93AF81F6
:10087400B885E985FA8509953FC2E53411F0E53676
:1008840009F403C0E63609F068C0FE017696EE87E7
:10089400FF87DE01A65ABF4F0D90BC91A02D0E9488
:1008A400870AEA87FB876C877D87FE01E65AFF4F3C
:1008B4000190F081E02D3497DE01A65ABF4FED93ED
:1008C400FC93AD85AA2332F0AD89AB3279F0A03226
:1008D400B9F01EC0EA85FB856C857D850E9465089C
:1008E400EA87FB876C877D87EDE2ED8B07FF08C005
:1008F400ED89EA93AF81B885E985FA85099508C041
:10090400EE85FF853196EE87FF873197AD89A08309
:1009140005FF46E0263661F4EA85FB856C857D8516
:100924000E94A10A4A93AB89BC890E9433070BC079
:10093400EA85FB856C857D850E94A10A4A932A93EA
:10094400AC89BD8994DDFE017696EE87FF87AE857E
:10095400BF850E94D2061E2F45C0E337E9F4FE018D
:10096400E65AFF4F0190F081E02D3497DE01A65A3C
:10097400BF4FED93FC93DE01A65ABF4F0D90BC917F
:10098400A02D14960E94830AEE87FF87AE85BF854B
:100994000E94D2061E2F1FC0E03749F5FE01E65A19
:1009A400FF4F0190F081E02D3497DE01A65ABF4F2E
:1009B400ED93FC93DE01A65ABF4F0D90BC91A02D80
:1009C40014960E94830AEE87FF87AE85BF850E9436
:1009D400DE061E2F08600F77403011F0411708F033
:1009E40001C0142F40E0E0E0EC8B30E0A9C0E43615
:1009F40011F0E93611F4046002C0E537C1F4EAE00D
:100A0400EC8B01FF0AC0E0E0FAEC6AE97BE3E88BD7
:100A1400F98B6A8B7B8B1AE028C0E0E1F7E260E097
:100A240070E0E88BF98B6A8B7B8B15E01EC0E83590
:100A340011F4086003C0E83709F05EC1E0E1EC8B13
:100A440001FF0AC0E0E0F0E060E070E1E88BF98BC0
:100A54006A8B7B8B18E009C0E0E0F0E160E070E0B5
:100A6400E88BF98B6A8B7B8B14E0403011F00F77A5
:100A740001C041E001FF16C0FE01E65AFF4F01909C
:100A8400F081E02D3497DE01A65ABF4FED93FC931D
:100A9400DE01A65ABF4F0D90BC91A02D14960E9462
:100AA400870A31C002FF18C0FE01E65AFF4F0190C9
:100AB400F081E02D3497DE01A65ABF4FED93FC93ED
:100AC400DE01A65ABF4F0D90BC91A02D14960E9432
:100AD400830A0E942A0A17C0FE01E65AFF4F0190BA
:100AE400F081E02D3497DE01A65ABF4FED93FC93BD
:100AF400DE01A65ABF4F0D90BC91A02D14960E9402
:100B0400830A66277727EA87FB876C877D8702FF3E
:100B140016C0AD85AA2362F4EA85FB856C857D85C4
:100B24000E941C0AEA87FB876C877D87EDE2ED8BC8
:100B3400ED89E03019F01F5F4F5F01C00B7F342F48
:100B440000FD18C0151710F4351708F013C007FF7F
:100B540008C002FF04C00B7F2D89115001C020E39F
:100B640001C020E22A93AF81B885E985FA85099509
:100B74005150E8CF141720F5006102FF15C00B7F18
:100B8400ED89EA93DE01A95ABF4F0D90BC91A02DC7
:100B9400FE01E75AFF4F0190F081E02D0995503096
:100BA40009F0515011504150E0E3EA93AF81B88508
:100BB400E985FA850995503009F051504150DACF52
:100BC400312FEC89E030D9F43030C1F003FF06C096
:100BD400EE85FF852591EE87FF8705C0AE85BF852D
:100BE4002D91AE87BF872A93AF81B885E985FA85B1
:100BF4000995503009F051503150E6CF70C0E88962
:100C0400F9896A897B89AA85BB858C859D850E9423
:100C1400420A2E2F2A3030F003FF02C0295C01C0A3
:100C2400295A01C0205D04FD30C0213360F4A88935
:100C3400B9898A899B89A130E0E0BE07E0E08E078C
:100C4400E0E09E0709F40BC0431740F4531710F07B
:100C540000FF01C023C020E207FF17C020E30061AA
:100C640002FF13C00B7FED89EA93DE01A95ABF4F3F
:100C74000D90BC91A02DFE01E75AFF4F0190F08129
:100C8400E02D0995503009F051502A93AF81B88571
:100C9400E985FA850995503009F051503150E889B9
:100CA400F9896A897B89AA85BB858C859D850E9483
:100CB400730AEA87FB876C877D87EC89A889B989E1
:100CC4008A899B89FF27662777270E94420AE88B37
:100CD400F98B6A8B7B8B0E94B80A09F090CF00FFD6
:100CE4000BC0503049F05150E0E2EA93AF81B8852F
:100CF400E985FA850995F5CF10E039CDAE81BF813C
:100D04000E94830A0E94C30AEF966F960895FF9289
:100D1400F82E26970E94BE0ADE011C960E940E0A37
:100D24000E94830A309719F4EFEFFFEF27C0DE012A
:100D340016960E940E0A8D01DE011C960E940E0A70
:100D44000E94830AEE83FF83E0E0E887E987DE01FF
:100D54001A960E940E0A0E94830AFA93EA931A933F
:100D64000A93E9EFF1E0FA93EA93DE011A96E2DCE2
:100D74009F01AE81BF81E0E0EC93F9010E94C50AB6
:100D84002A96FF900895BA93AA93E991F991A991AB
:100D9400B991CD0105900D920020E1F7FC01089571
:100DA400BA93AA93A991B991EE27FF276D9166236F
:100DB40011F03196FBCF0895BA93AA93AA27BB27C3
:100DC400E991F9910590002011F01196FBCFFD01F6
:100DD40008950E94A60A7B816A81F981E88177FBE4
:100DE400770F67FD7160972F9E5781F078F09831E7
:100DF40090F4AA27BB27882708948795B795A795C9
:100E04009A95D1F7EA23FB23682305C0E894772752
:100E1400EE27FF2766276F77769508F4606877F9E1
:100E2400A991B99189919991EA17FB076807790704
:100E340097FB08950E94A60A0E94970A0E94EB0657
:100E44000E949C0A19F40E94920A09C0E6F70E94C3
:100E5400920AA0E0B0E080E89FE30E94040924968F
:100E64000895BA93AA932497E0E0E883E983EA8398
:100E7400EFE3EB831A930A93EB85FC85EF3FAFEF27
:100E8400FA0749F4EE81FF81FA93EA93ACE7B0E004
:100E94000E94C5060AC1EF3FAFE7FA0749F4EE81A5
:100EA400FF81FA93EA93ADE7B0E00E94C506FDC066
:100EB400AC85AA2392F4E985FA856B857C850E942A
:100EC4006508E987FA876B877C87AE81BF811196B5
:100ED400AE83BF831197EDE2EC93A885A73010F0A1
:100EE400E6E0E8871885E12F1150E03079F0AA8117
:100EF400BB818C819D81EDECFCEC6CEC7DE30E946C
:100F04005B09EA83FB836C837D83EDCFEA81FB81FC
:100F14006C817D81A985BA858B859C850E940B098E
:100F2400E987FA876B877C8710E0E0E0F0E060E80F
:100F34007FE3EA83FB836C837D83EA81FB816C819D
:100F44007D81A985BA858B859C850E94EE09D8F0A0
:100F5400AA81BB818C819D81E0E0F0E060E271E4D4
:100F64000E945B09EA83FB836C837D831F5F1732D6
:100F740048F0EE81FF81FA93EA93A1E8B0E00E9481
:100F8400C50693C0DACF103049F4AE81BF81119603
:100F9400AE83BF831197E0E3EC9347C0E12F115078
:100FA400E03009F442C0AA81BB818C819D81EDECC3
:100FB400FCEC6CEC7DE30E945B09A0E0B0E080E017
:100FC4009FE30E940B09DF01CB010E941C07EA8307
:100FD400FB836C837D83A985BA858B859C850E9460
:100FE400A9090E9498080E2FAE81BF811196AE8385
:100FF400BF831197E05DEC93E02FF0E0AA81BB8101
:101004008C819D810E942A0A0E94D1080E945B095A
:10101400A985BA858B859C850E94AB0A0E94040928
:10102400E987FA876B877C87B9CFE885E030C9F117
:10103400AE81BF811196AE83BF831197EEE2EC932C
:10104400E885E150E887EF5F61F1A985BA858B8572
:101054009C85E0E0F0E060E271E40E945B09E987CE
:10106400FA876B877C870E9498080E2FAE81BF8118
:101074001196AE83BF831197E05DEC93E02FF0E00F
:10108400A985BA858B859C850E942A0A0E94D1086D
:101094000E94AB0A0E940409E987FA876B877C8760
:1010A400CFCFAE81BF81E0E0EC93198108812D960A
:1010B4000895109639F080EA9FE00197F1F7A8951A
:1010C4001197C9F7089530976040704009F070583F
:1010D4000895552342F4503811F4E0FF04C03196CA
:1010E400691F791F6BF050E8572711F45F93CFC045
:1010F4005F3F31F0660F000C57956795752F089583
:101104005F9300200AF0CFC0C8C050E8192E152202
:10111400880F991F9527550F879550E8072E0522AC
:10112400660F771F7527550F67950895689401C05A
:10113400E8945F93F2DF703818F07F3F08F4A7C09B
:1011440056E1571BAAF4519558300EF4593030F03B
:10115400EFEFFFEF6FEF7FE777F91AC0772755239B
:10116400B9F0EE0FFF1F661F771F5A95D1F710C015
:101174007727583028F0EF2FF62F672F5850F9CFE4
:10118400552331F076956795F795E7955A95D1F7FC
:1011940000200AF44FD15F910895689401C0E89447
:1011A400309760407040B1F0002426F0772312F4A9
:1011B400009440D1172E7EE1112032F07A95EE0F83
:1011C400FF1F661F111CF9CFEF2FF62F612D5F93C0
:1011D4008ADF5F9108954F93AF01FD01DA01AB01FE
:1011E400BC01CA01402D012C142E4F910895EA0F21
:1011F400FB1F681F0895E095F0956095EF5FFF4F22
:101204006F4F08955F9381DF903871F150E8152690
:1012140004C05F937ADF903839F1703821F1572F89
:10122400591B2BF112F4D7DFFACF583118F0AA2743
:10123400BB278827583028F0AB2FB82F8827585061
:10124400F9CF552329F08695B795A7955A95D9F7DF
:10125400502D512572F0CBDF38F46795F795E7955B
:10126400739513F420C0B7DF3EDF5F910895D8F77C
:10127400FBCFEA1BFB0B680B51F010F40094BBDFAF
:10128400662392F3EE0FFF1F661F7A95CBF7EE27C6
:10129400FF27662777275F910895EFEFFFEF6FE74A
:1012A4007FEF5F910895EFEFFFEF6FE77FE75F91C7
:1012B40008955F932ADF703851F3903841F3012485
:1012C4000894791F23F41CF300203AF3ECCF0F9217
:1012D4001F932F933F934F93112722279927689F9A
:1012E400A0018F9F302D410D591F6B9F300D411D63
:1012F400591F8E9F27D0BF9F25D06A9F23D0BE9FA2
:101304001DD0AF9F1BD0AE9F110D291F391F491F40
:10131400591FE32FF42F652F522F4F913F912F9197
:101324001F910F9066232AF0550FEE1FFF1F661FB3
:1013340002C073954BF2CDDE5F910895100D211D0F
:10134400391F02C0200D311D491F591F08955F9395
:10135400DCDE703821F411200AF49FCFA4CF90383A
:1013640009F495CF01240894970B1BF4D4F30020BF
:10137400F3CF792F1F932F933F934F93112411276A
:10138400222733274427552790E2AE17BF07860745
:10139400410730F0AE1BBF0B860B410B089401C014
:1013A4008894551F221F331F111CAA1FBB1F881F9F
:1013B400441F9A9551F7F901612D4F913F912F9157
:1013C4001F91662332F0550FEE1FFF1F661F7A959B
:1013D40043F27FDE5F91089599239AF0772342F0D8
:1013E400971748F029F4AE17BF07860720F031F0AD
:1013F40098948894089598940894089518948894D7
:1014040008957723C2F7971798F3A9F7EA17FB070C
:10141400680788F399F3ECCF0024AF0DB01D08954D
:10142400EA0FFB1F681F791F0895AE1BBF0B860BC5
:10143400970B0895F09560957095E195FF4F6F4F68
:101444007F4F0895FE2FFF0FFF0B6F2F7F2F0895FF
:101454006F2F660F660B762F0895002498E0AA0F6D
:10146400001C0E1A10F40E0E01C0A1609A95B9F773
:10147400EA2FA02D089539D0F0DF0EF4E1950895F8
:101484003F934F935F93002411244427552730E260
:10149400AA0FBB1F881F991F001C111C441F551F36
:1014A4000E1A1F0A460B570B28F40E0E1F1E461F5A
:1014B400571F01C0A1603A9559F7FD01BC01D00145
:1014C400CA015F914F913F910895E894A7FF02C02C
:1014D400A1956894E7FDE195C0DFEA2F0EF4E1954C
:1014E4000895CEDFFD01BC010895E894E7FF02C032
:1014F400E1956894A7FF04C0A19500F8039400FA4D
:101504000895ED91FC9111970895ED91FD916D91E0
:101514007C9113970895ED93FD936D937C930895B7
:10152400E881F9816A817B810895A881B9818A81E2
:101534009B810895E883F9836A837B8308957A9372
:101544006A93FA93EA9308959A938A93BA93AA931F
:101554000895182E862F612D192E972F712D1B2E6D
:10156400BF2FF12D1A2EAE2FE12D08953097604034
:10157400704008955A934A933A932A931A930A937C
:1015840008955D814C813B812A81198108810895E8
:00000001FF
